:100000000C945D000C947A000C947A000C947A00A5
:100010000C947A000C947A000C947A000C947A0078
:100020000C947A000C947A000C947A000C947A0068
:100030000C947A000C947A000C947A000C947A0058
:100040000C9453010C947A000C947A000C947A006E
:100050000C947A000C947A000C947A000C947A0038
:100060000C947A000C947A00000000002400270011
:100070002A0000000000250028002B0004040404CE
:100080000404040402020202020203030303030342
:10009000010204081020408001020408102001021F
:1000A00004081020000000080002010000030407FB
:1000B00000000000000000009C0211241FBECFEFD2
:1000C000D8E0DEBFCDBF21E0A0E0B1E001C01D92CD
:1000D000AB30B207E1F710E0CDE5D0E004C02197E6
:1000E000FE010E94BE02CC35D107C9F70E949D01D6
:1000F0000C94C4020C94000090E0FC01EC55FF4FFE
:100100002491FC01E057FF4F3491FC01E458FF4F6C
:10011000E491EE23C9F0222339F0233001F1A8F451
:10012000213019F1223029F1F0E0EE0FFF1FEE58D7
:10013000FF4FA591B4918FB7F894EC91611126C04F
:1001400030953E233C938FBF08952730A9F0283087
:10015000C9F0243049F7809180008F7D03C08091E1
:1001600080008F7780938000DFCF84B58F7784BD48
:10017000DBCF84B58F7DFBCF8091B0008F778093EC
:10018000B000D2CF8091B0008F7DF9CF3E2BDACF77
:100190003FB7F8948091050190910601A091070165
:1001A000B091080126B5A89B05C02F3F19F0019614
:1001B000A11DB11D3FBFBA2FA92F982F8827BC01C1
:1001C000CD01620F711D811D911D42E0660F771FE9
:1001D000881F991F4A95D1F708958F929F92AF92E9
:1001E000BF92CF92DF92EF92FF924B015C010E948F
:1001F000C8006B017C010E94C8006C197D098E0942
:100200009F09683E734081059105A8F321E0821A99
:100210009108A108B10888EEC80E83E0D81EE11C41
:10022000F11C81149104A104B10429F7FF90EF900F
:10023000DF90CF90BF90AF909F908F900895CF9315
:10024000DF93C9E0D1E061E088810E947C006AEF21
:1002500070E080E090E00E94ED0060E088810E9404
:100260007C006AEF70E080E090E0DF91CF910C9429
:10027000ED00CF93DF93C9E0D1E061E088810E9477
:100280007C0068EE73E080E090E00E94ED0060E0AA
:1002900088810E947C006AEF70E080E090E0DF914E
:1002A000CF910C94ED001F920F920FB60F92112474
:1002B0002F933F938F939F93AF93BF9380910101AF
:1002C00090910201A0910301B091040130910001CD
:1002D00023E0230F2D3758F50196A11DB11D209362
:1002E00000018093010190930201A0930301B09358
:1002F00004018091050190910601A0910701B09140
:1003000008010196A11DB11D80930501909306017E
:10031000A0930701B0930801BF91AF919F918F9176
:100320003F912F910F900FBE0F901F90189526E8C8
:10033000230F0296A11DB11DD2CF789484B582609F
:1003400084BD84B5816084BD85B5826085BD85B579
:10035000816085BD80916E00816080936E001092F7
:100360008100809181008260809381008091810072
:100370008160809381008091800081608093800003
:100380008091B10084608093B1008091B000816061
:100390008093B00080917A00846080937A0080918D
:1003A0007A00826080937A0080917A0081608093E5
:1003B0007A0080917A00806880937A001092C10060
:1003C000C0E0D0E00E9439010E941F010E94390163
:1003D0000E9439010E9439010E9439010E943901AD
:1003E0000E941F010E941F010E9439010E941F01EB
:1003F0000E9439010E941F010E941F010E941F01DB
:100400000E9439010E9439010E941F010E941F01B0
:100410000E941F010E9439010E941F010E941F01BA
:100420000E9439010E941F010E941F010E941F01AA
:100430000E9439010E9439010E9439010E941F0166
:100440000E941F010E941F010E9439010E94390170
:100450000E941F010E9439010E941F010E941F017A
:100460000E941F010E941F010E941F010E941F0184
:100470000E941F010E9439010E9439010E941F0140
:100480000E9439010E941F010E941F010E94390130
:100490000E941F010E941F010E941F010E9439013A
:1004A0000E9439010E941F010E9439010E943901F6
:1004B0000E9439010E9439010E9439010E943901CC
:1004C0000E941F010E9439010E941F010E941F010A
:1004D0000E941F010E941F010E941F010E941F0114
:1004E0000E941F010E9439010E9439010E941F01D0
:1004F0000E9439010E9439010E941F010E943901A6
:100500000E941F010E9439010E9439010E94390195
:100510000E9439010E941F010E941F010E941F01B9
:1005200068EB7BE080E090E00E94ED00209709F40A
:1005300049CF0E94000046CFEDE9F0E02491E9E8C0
:10054000F0E08491882399F090E0880F991FFC01D6
:10055000E859FF4FA591B491FC01EE58FF4F8591EA
:1005600094918FB7F894EC91E22BEC938FBF8DE0D0
:1005700090E090930A01809309010895EE0FFF1F08
:0C0580000590F491E02D0994F894FFCF51
:00000001FF
